{
  "_format": "hh-sol-artifact-1",
  "contractName": "Assessment",
  "sourceName": "contracts/Assessment.sol",
  "abi": [
    {
      "stateMutability": "payable",
      "type": "fallback"
    },
    {
      "inputs": [
        {
          "internalType": "uint256",
          "name": "amount",
          "type": "uint256"
        }
      ],
      "name": "decrement",
      "outputs": [],
      "stateMutability": "nonpayable",
      "type": "function"
    },
    {
      "inputs": [
        {
          "internalType": "uint256",
          "name": "amount",
          "type": "uint256"
        }
      ],
      "name": "increment",
      "outputs": [],
      "stateMutability": "nonpayable",
      "type": "function"
    },
    {
      "inputs": [],
      "name": "reset",
      "outputs": [],
      "stateMutability": "nonpayable",
      "type": "function"
    },
    {
      "inputs": [
        {
          "internalType": "uint256",
          "name": "_value",
          "type": "uint256"
        }
      ],
      "name": "setValue",
      "outputs": [],
      "stateMutability": "nonpayable",
      "type": "function"
    },
    {
      "inputs": [],
      "name": "value",
      "outputs": [
        {
          "internalType": "uint256",
          "name": "",
          "type": "uint256"
        }
      ],
      "stateMutability": "view",
      "type": "function"
    }
  ],
  "bytecode": "0x608060405234801561001057600080fd5b506103a4806100206000396000f3fe60806040526004361061004e5760003560e01c80633a9ebefd146100515780633fa4f2451461007a57806355241077146100a55780637cf5dab0146100ce578063d826f88f146100f75761004f565b5b005b34801561005d57600080fd5b50610078600480360381019061007391906101dd565b61010e565b005b34801561008657600080fd5b5061008f61016e565b60405161009c9190610219565b60405180910390f35b3480156100b157600080fd5b506100cc60048036038101906100c791906101dd565b610174565b005b3480156100da57600080fd5b506100f560048036038101906100f091906101dd565b61017e565b005b34801561010357600080fd5b5061010c610199565b005b806000541015610153576040517f08c379a000000000000000000000000000000000000000000000000000000000815260040161014a906102b7565b60405180910390fd5b806000808282546101649190610306565b9250508190555050565b60005481565b8060008190555050565b8060008082825461018f919061033a565b9250508190555050565b60008081905550565b600080fd5b6000819050919050565b6101ba816101a7565b81146101c557600080fd5b50565b6000813590506101d7816101b1565b92915050565b6000602082840312156101f3576101f26101a2565b5b6000610201848285016101c8565b91505092915050565b610213816101a7565b82525050565b600060208201905061022e600083018461020a565b92915050565b600082825260208201905092915050565b7f56616c7565206d7573742062652067726561746572207468616e206f7220657160008201527f75616c20746f20616d6f756e7400000000000000000000000000000000000000602082015250565b60006102a1602d83610234565b91506102ac82610245565b604082019050919050565b600060208201905081810360008301526102d081610294565b9050919050565b7f4e487b7100000000000000000000000000000000000000000000000000000000600052601160045260246000fd5b6000610311826101a7565b915061031c836101a7565b9250828203905081811115610334576103336102d7565b5b92915050565b6000610345826101a7565b9150610350836101a7565b9250828201905080821115610368576103676102d7565b5b9291505056fea264697066735822122097f85fb79fe8a44d13f96e94081922a05d14390e5c25b893fe34f1d8c511d28f64736f6c63430008110033",
  "linkReferences": {},
  "deployedLinkReferences": {}
}