{
  "_format": "hh-sol-artifact-1",
  "contractName": "Assessment",
  "sourceName": "contracts/Assessment.sol",
  "abi": [
    {
      "inputs": [
        {
          "internalType": "string",
          "name": "_message",
          "type": "string"
        },
        {
          "internalType": "uint256",
          "name": "_value",
          "type": "uint256"
        }
      ],
      "stateMutability": "nonpayable",
      "type": "constructor"
    },
    {
      "stateMutability": "payable",
      "type": "fallback"
    },
    {
      "inputs": [],
      "name": "clearMessage",
      "outputs": [],
      "stateMutability": "nonpayable",
      "type": "function"
    },
    {
      "inputs": [],
      "name": "message",
      "outputs": [
        {
          "internalType": "string",
          "name": "",
          "type": "string"
        }
      ],
      "stateMutability": "view",
      "type": "function"
    },
    {
      "inputs": [],
      "name": "resetValue",
      "outputs": [],
      "stateMutability": "nonpayable",
      "type": "function"
    },
    {
      "inputs": [],
      "name": "retrieveMessage",
      "outputs": [
        {
          "internalType": "string",
          "name": "",
          "type": "string"
        }
      ],
      "stateMutability": "view",
      "type": "function"
    },
    {
      "inputs": [],
      "name": "retrieveValue",
      "outputs": [
        {
          "internalType": "uint256",
          "name": "",
          "type": "uint256"
        }
      ],
      "stateMutability": "view",
      "type": "function"
    },
    {
      "inputs": [
        {
          "internalType": "string",
          "name": "_newMessage",
          "type": "string"
        }
      ],
      "name": "updateMessage",
      "outputs": [],
      "stateMutability": "nonpayable",
      "type": "function"
    },
    {
      "inputs": [
        {
          "internalType": "uint256",
          "name": "_newValue",
          "type": "uint256"
        }
      ],
      "name": "updateValue",
      "outputs": [],
      "stateMutability": "nonpayable",
      "type": "function"
    },
    {
      "inputs": [],
      "name": "value",
      "outputs": [
        {
          "internalType": "uint256",
          "name": "",
          "type": "uint256"
        }
      ],
      "stateMutability": "view",
      "type": "function"
    }
  ],
  "bytecode": "0x60806040523480156200001157600080fd5b5060405162000ecf38038062000ecf833981810160405281019062000037919062000226565b8160009081620000489190620004cd565b50806001819055505050620005b4565b6000604051905090565b600080fd5b600080fd5b600080fd5b600080fd5b6000601f19601f8301169050919050565b7f4e487b7100000000000000000000000000000000000000000000000000000000600052604160045260246000fd5b620000c18262000076565b810181811067ffffffffffffffff82111715620000e357620000e262000087565b5b80604052505050565b6000620000f862000058565b9050620001068282620000b6565b919050565b600067ffffffffffffffff82111562000129576200012862000087565b5b620001348262000076565b9050602081019050919050565b60005b838110156200016157808201518184015260208101905062000144565b60008484015250505050565b6000620001846200017e846200010b565b620000ec565b905082815260208101848484011115620001a357620001a262000071565b5b620001b084828562000141565b509392505050565b600082601f830112620001d057620001cf6200006c565b5b8151620001e28482602086016200016d565b91505092915050565b6000819050919050565b6200020081620001eb565b81146200020c57600080fd5b50565b6000815190506200022081620001f5565b92915050565b6000806040838503121562000240576200023f62000062565b5b600083015167ffffffffffffffff81111562000261576200026062000067565b5b6200026f85828601620001b8565b925050602062000282858286016200020f565b9150509250929050565b600081519050919050565b7f4e487b7100000000000000000000000000000000000000000000000000000000600052602260045260246000fd5b60006002820490506001821680620002df57607f821691505b602082108103620002f557620002f462000297565b5b50919050565b60008190508160005260206000209050919050565b60006020601f8301049050919050565b600082821b905092915050565b6000600883026200035f7fffffffffffffffffffffffffffffffffffffffffffffffffffffffffffffffff8262000320565b6200036b868362000320565b95508019841693508086168417925050509392505050565b6000819050919050565b6000620003ae620003a8620003a284620001eb565b62000383565b620001eb565b9050919050565b6000819050919050565b620003ca836200038d565b620003e2620003d982620003b5565b8484546200032d565b825550505050565b600090565b620003f9620003ea565b62000406818484620003bf565b505050565b5b818110156200042e5762000422600082620003ef565b6001810190506200040c565b5050565b601f8211156200047d576200044781620002fb565b620004528462000310565b8101602085101562000462578190505b6200047a620004718562000310565b8301826200040b565b50505b505050565b600082821c905092915050565b6000620004a26000198460080262000482565b1980831691505092915050565b6000620004bd83836200048f565b9150826002028217905092915050565b620004d8826200028c565b67ffffffffffffffff811115620004f457620004f362000087565b5b620005008254620002c6565b6200050d82828562000432565b600060209050601f83116001811462000545576000841562000530578287015190505b6200053c8582620004af565b865550620005ac565b601f1984166200055586620002fb565b60005b828110156200057f5784890151825560018201915060208501945060208101905062000558565b868310156200059f57848901516200059b601f8916826200048f565b8355505b6001600288020188555050505b505050505050565b61090b80620005c46000396000f3fe60806040526004361061007f5760003560e01c8063573c0bd31161004e578063573c0bd3146101185780638bdc4f2314610141578063ac4664df1461016c578063e21f37ce1461018357610080565b806316e9fe81146100825780631923be24146100995780633fa4f245146100c2578063485caefc146100ed57610080565b5b005b34801561008e57600080fd5b506100976101ae565b005b3480156100a557600080fd5b506100c060048036038101906100bb9190610480565b6101b8565b005b3480156100ce57600080fd5b506100d76101cb565b6040516100e491906104e2565b60405180910390f35b3480156100f957600080fd5b506101026101d1565b60405161010f919061057c565b60405180910390f35b34801561012457600080fd5b5061013f600480360381019061013a91906105ca565b610263565b005b34801561014d57600080fd5b5061015661026d565b60405161016391906104e2565b60405180910390f35b34801561017857600080fd5b50610181610277565b005b34801561018f57600080fd5b50610198610298565b6040516101a5919061057c565b60405180910390f35b6000600181905550565b80600090816101c79190610803565b5050565b60015481565b6060600080546101e090610626565b80601f016020809104026020016040519081016040528092919081815260200182805461020c90610626565b80156102595780601f1061022e57610100808354040283529160200191610259565b820191906000526020600020905b81548152906001019060200180831161023c57829003601f168201915b5050505050905090565b8060018190555050565b6000600154905090565b60405180602001604052806000815250600090816102959190610803565b50565b600080546102a590610626565b80601f01602080910402602001604051908101604052809291908181526020018280546102d190610626565b801561031e5780601f106102f35761010080835404028352916020019161031e565b820191906000526020600020905b81548152906001019060200180831161030157829003601f168201915b505050505081565b6000604051905090565b600080fd5b600080fd5b600080fd5b600080fd5b6000601f19601f8301169050919050565b7f4e487b7100000000000000000000000000000000000000000000000000000000600052604160045260246000fd5b61038d82610344565b810181811067ffffffffffffffff821117156103ac576103ab610355565b5b80604052505050565b60006103bf610326565b90506103cb8282610384565b919050565b600067ffffffffffffffff8211156103eb576103ea610355565b5b6103f482610344565b9050602081019050919050565b82818337600083830152505050565b600061042361041e846103d0565b6103b5565b90508281526020810184848401111561043f5761043e61033f565b5b61044a848285610401565b509392505050565b600082601f8301126104675761046661033a565b5b8135610477848260208601610410565b91505092915050565b60006020828403121561049657610495610330565b5b600082013567ffffffffffffffff8111156104b4576104b3610335565b5b6104c084828501610452565b91505092915050565b6000819050919050565b6104dc816104c9565b82525050565b60006020820190506104f760008301846104d3565b92915050565b600081519050919050565b600082825260208201905092915050565b60005b8381101561053757808201518184015260208101905061051c565b60008484015250505050565b600061054e826104fd565b6105588185610508565b9350610568818560208601610519565b61057181610344565b840191505092915050565b600060208201905081810360008301526105968184610543565b905092915050565b6105a7816104c9565b81146105b257600080fd5b50565b6000813590506105c48161059e565b92915050565b6000602082840312156105e0576105df610330565b5b60006105ee848285016105b5565b91505092915050565b7f4e487b7100000000000000000000000000000000000000000000000000000000600052602260045260246000fd5b6000600282049050600182168061063e57607f821691505b602082108103610651576106506105f7565b5b50919050565b60008190508160005260206000209050919050565b60006020601f8301049050919050565b600082821b905092915050565b6000600883026106b97fffffffffffffffffffffffffffffffffffffffffffffffffffffffffffffffff8261067c565b6106c3868361067c565b95508019841693508086168417925050509392505050565b6000819050919050565b60006107006106fb6106f6846104c9565b6106db565b6104c9565b9050919050565b6000819050919050565b61071a836106e5565b61072e61072682610707565b848454610689565b825550505050565b600090565b610743610736565b61074e818484610711565b505050565b5b818110156107725761076760008261073b565b600181019050610754565b5050565b601f8211156107b75761078881610657565b6107918461066c565b810160208510156107a0578190505b6107b46107ac8561066c565b830182610753565b50505b505050565b600082821c905092915050565b60006107da600019846008026107bc565b1980831691505092915050565b60006107f383836107c9565b9150826002028217905092915050565b61080c826104fd565b67ffffffffffffffff81111561082557610824610355565b5b61082f8254610626565b61083a828285610776565b600060209050601f83116001811461086d576000841561085b578287015190505b61086585826107e7565b8655506108cd565b601f19841661087b86610657565b60005b828110156108a35784890151825560018201915060208501945060208101905061087e565b868310156108c057848901516108bc601f8916826107c9565b8355505b6001600288020188555050505b50505050505056fea26469706673582212202d6854390be7cc7ba93ed7c07d18738f3e65761a57377c6bd1c012b1445304d864736f6c63430008110033",
  "linkReferences": {},
  "deployedLinkReferences": {}
}