{"contracts/Assessment.sol":{"Assessment":{"abi":[{"stateMutability":"payable","type":"fallback"},{"inputs":[{"internalType":"uint256","name":"amount","type":"uint256"}],"name":"decrement","outputs":[],"stateMutability":"nonpayable","type":"function"},{"inputs":[{"internalType":"uint256","name":"amount","type":"uint256"}],"name":"increment","outputs":[],"stateMutability":"nonpayable","type":"function"},{"inputs":[],"name":"reset","outputs":[],"stateMutability":"nonpayable","type":"function"},{"inputs":[{"internalType":"uint256","name":"_value","type":"uint256"}],"name":"setValue","outputs":[],"stateMutability":"nonpayable","type":"function"},{"inputs":[],"name":"value","outputs":[{"internalType":"uint256","name":"","type":"uint256"}],"stateMutability":"view","type":"function"}],"evm":{"bytecode":{"linkReferences":{},"object":"608060405234801561001057600080fd5b506103a4806100206000396000f3fe60806040526004361061004e5760003560e01c80633a9ebefd146100515780633fa4f2451461007a57806355241077146100a55780637cf5dab0146100ce578063d826f88f146100f75761004f565b5b005b34801561005d57600080fd5b50610078600480360381019061007391906101dd565b61010e565b005b34801561008657600080fd5b5061008f61016e565b60405161009c9190610219565b60405180910390f35b3480156100b157600080fd5b506100cc60048036038101906100c791906101dd565b610174565b005b3480156100da57600080fd5b506100f560048036038101906100f091906101dd565b61017e565b005b34801561010357600080fd5b5061010c610199565b005b806000541015610153576040517f08c379a000000000000000000000000000000000000000000000000000000000815260040161014a906102b7565b60405180910390fd5b806000808282546101649190610306565b9250508190555050565b60005481565b8060008190555050565b8060008082825461018f919061033a565b9250508190555050565b60008081905550565b600080fd5b6000819050919050565b6101ba816101a7565b81146101c557600080fd5b50565b6000813590506101d7816101b1565b92915050565b6000602082840312156101f3576101f26101a2565b5b6000610201848285016101c8565b91505092915050565b610213816101a7565b82525050565b600060208201905061022e600083018461020a565b92915050565b600082825260208201905092915050565b7f56616c7565206d7573742062652067726561746572207468616e206f7220657160008201527f75616c20746f20616d6f756e7400000000000000000000000000000000000000602082015250565b60006102a1602d83610234565b91506102ac82610245565b604082019050919050565b600060208201905081810360008301526102d081610294565b9050919050565b7f4e487b7100000000000000000000000000000000000000000000000000000000600052601160045260246000fd5b6000610311826101a7565b915061031c836101a7565b9250828203905081811115610334576103336102d7565b5b92915050565b6000610345826101a7565b9150610350836101a7565b9250828201905080821115610368576103676102d7565b5b9291505056fea264697066735822122097f85fb79fe8a44d13f96e94081922a05d14390e5c25b893fe34f1d8c511d28f64736f6c63430008110033","opcodes":"PUSH1 0x80 PUSH1 0x40 MSTORE CALLVALUE DUP1 ISZERO PUSH2 0x10 JUMPI PUSH1 0x0 DUP1 REVERT JUMPDEST POP PUSH2 0x3A4 DUP1 PUSH2 0x20 PUSH1 0x0 CODECOPY PUSH1 0x0 RETURN INVALID PUSH1 0x80 PUSH1 0x40 MSTORE PUSH1 0x4 CALLDATASIZE LT PUSH2 0x4E JUMPI PUSH1 0x0 CALLDATALOAD PUSH1 0xE0 SHR DUP1 PUSH4 0x3A9EBEFD EQ PUSH2 0x51 JUMPI DUP1 PUSH4 0x3FA4F245 EQ PUSH2 0x7A JUMPI DUP1 PUSH4 0x55241077 EQ PUSH2 0xA5 JUMPI DUP1 PUSH4 0x7CF5DAB0 EQ PUSH2 0xCE JUMPI DUP1 PUSH4 0xD826F88F EQ PUSH2 0xF7 JUMPI PUSH2 0x4F JUMP JUMPDEST JUMPDEST STOP JUMPDEST CALLVALUE DUP1 ISZERO PUSH2 0x5D JUMPI PUSH1 0x0 DUP1 REVERT JUMPDEST POP PUSH2 0x78 PUSH1 0x4 DUP1 CALLDATASIZE SUB DUP2 ADD SWAP1 PUSH2 0x73 SWAP2 SWAP1 PUSH2 0x1DD JUMP JUMPDEST PUSH2 0x10E JUMP JUMPDEST STOP JUMPDEST CALLVALUE DUP1 ISZERO PUSH2 0x86 JUMPI PUSH1 0x0 DUP1 REVERT JUMPDEST POP PUSH2 0x8F PUSH2 0x16E JUMP JUMPDEST PUSH1 0x40 MLOAD PUSH2 0x9C SWAP2 SWAP1 PUSH2 0x219 JUMP JUMPDEST PUSH1 0x40 MLOAD DUP1 SWAP2 SUB SWAP1 RETURN JUMPDEST CALLVALUE DUP1 ISZERO PUSH2 0xB1 JUMPI PUSH1 0x0 DUP1 REVERT JUMPDEST POP PUSH2 0xCC PUSH1 0x4 DUP1 CALLDATASIZE SUB DUP2 ADD SWAP1 PUSH2 0xC7 SWAP2 SWAP1 PUSH2 0x1DD JUMP JUMPDEST PUSH2 0x174 JUMP JUMPDEST STOP JUMPDEST CALLVALUE DUP1 ISZERO PUSH2 0xDA JUMPI PUSH1 0x0 DUP1 REVERT JUMPDEST POP PUSH2 0xF5 PUSH1 0x4 DUP1 CALLDATASIZE SUB DUP2 ADD SWAP1 PUSH2 0xF0 SWAP2 SWAP1 PUSH2 0x1DD JUMP JUMPDEST PUSH2 0x17E JUMP JUMPDEST STOP JUMPDEST CALLVALUE DUP1 ISZERO PUSH2 0x103 JUMPI PUSH1 0x0 DUP1 REVERT JUMPDEST POP PUSH2 0x10C PUSH2 0x199 JUMP JUMPDEST STOP JUMPDEST DUP1 PUSH1 0x0 SLOAD LT ISZERO PUSH2 0x153 JUMPI PUSH1 0x40 MLOAD PUSH32 0x8C379A000000000000000000000000000000000000000000000000000000000 DUP2 MSTORE PUSH1 0x4 ADD PUSH2 0x14A SWAP1 PUSH2 0x2B7 JUMP JUMPDEST PUSH1 0x40 MLOAD DUP1 SWAP2 SUB SWAP1 REVERT JUMPDEST DUP1 PUSH1 0x0 DUP1 DUP3 DUP3 SLOAD PUSH2 0x164 SWAP2 SWAP1 PUSH2 0x306 JUMP JUMPDEST SWAP3 POP POP DUP2 SWAP1 SSTORE POP POP JUMP JUMPDEST PUSH1 0x0 SLOAD DUP2 JUMP JUMPDEST DUP1 PUSH1 0x0 DUP2 SWAP1 SSTORE POP POP JUMP JUMPDEST DUP1 PUSH1 0x0 DUP1 DUP3 DUP3 SLOAD PUSH2 0x18F SWAP2 SWAP1 PUSH2 0x33A JUMP JUMPDEST SWAP3 POP POP DUP2 SWAP1 SSTORE POP POP JUMP JUMPDEST PUSH1 0x0 DUP1 DUP2 SWAP1 SSTORE POP JUMP JUMPDEST PUSH1 0x0 DUP1 REVERT JUMPDEST PUSH1 0x0 DUP2 SWAP1 POP SWAP2 SWAP1 POP JUMP JUMPDEST PUSH2 0x1BA DUP2 PUSH2 0x1A7 JUMP JUMPDEST DUP2 EQ PUSH2 0x1C5 JUMPI PUSH1 0x0 DUP1 REVERT JUMPDEST POP JUMP JUMPDEST PUSH1 0x0 DUP2 CALLDATALOAD SWAP1 POP PUSH2 0x1D7 DUP2 PUSH2 0x1B1 JUMP JUMPDEST SWAP3 SWAP2 POP POP JUMP JUMPDEST PUSH1 0x0 PUSH1 0x20 DUP3 DUP5 SUB SLT ISZERO PUSH2 0x1F3 JUMPI PUSH2 0x1F2 PUSH2 0x1A2 JUMP JUMPDEST JUMPDEST PUSH1 0x0 PUSH2 0x201 DUP5 DUP3 DUP6 ADD PUSH2 0x1C8 JUMP JUMPDEST SWAP2 POP POP SWAP3 SWAP2 POP POP JUMP JUMPDEST PUSH2 0x213 DUP2 PUSH2 0x1A7 JUMP JUMPDEST DUP3 MSTORE POP POP JUMP JUMPDEST PUSH1 0x0 PUSH1 0x20 DUP3 ADD SWAP1 POP PUSH2 0x22E PUSH1 0x0 DUP4 ADD DUP5 PUSH2 0x20A JUMP JUMPDEST SWAP3 SWAP2 POP POP JUMP JUMPDEST PUSH1 0x0 DUP3 DUP3 MSTORE PUSH1 0x20 DUP3 ADD SWAP1 POP SWAP3 SWAP2 POP POP JUMP JUMPDEST PUSH32 0x56616C7565206D7573742062652067726561746572207468616E206F72206571 PUSH1 0x0 DUP3 ADD MSTORE PUSH32 0x75616C20746F20616D6F756E7400000000000000000000000000000000000000 PUSH1 0x20 DUP3 ADD MSTORE POP JUMP JUMPDEST PUSH1 0x0 PUSH2 0x2A1 PUSH1 0x2D DUP4 PUSH2 0x234 JUMP JUMPDEST SWAP2 POP PUSH2 0x2AC DUP3 PUSH2 0x245 JUMP JUMPDEST PUSH1 0x40 DUP3 ADD SWAP1 POP SWAP2 SWAP1 POP JUMP JUMPDEST PUSH1 0x0 PUSH1 0x20 DUP3 ADD SWAP1 POP DUP2 DUP2 SUB PUSH1 0x0 DUP4 ADD MSTORE PUSH2 0x2D0 DUP2 PUSH2 0x294 JUMP JUMPDEST SWAP1 POP SWAP2 SWAP1 POP JUMP JUMPDEST PUSH32 0x4E487B7100000000000000000000000000000000000000000000000000000000 PUSH1 0x0 MSTORE PUSH1 0x11 PUSH1 0x4 MSTORE PUSH1 0x24 PUSH1 0x0 REVERT JUMPDEST PUSH1 0x0 PUSH2 0x311 DUP3 PUSH2 0x1A7 JUMP JUMPDEST SWAP2 POP PUSH2 0x31C DUP4 PUSH2 0x1A7 JUMP JUMPDEST SWAP3 POP DUP3 DUP3 SUB SWAP1 POP DUP2 DUP2 GT ISZERO PUSH2 0x334 JUMPI PUSH2 0x333 PUSH2 0x2D7 JUMP JUMPDEST JUMPDEST SWAP3 SWAP2 POP POP JUMP JUMPDEST PUSH1 0x0 PUSH2 0x345 DUP3 PUSH2 0x1A7 JUMP JUMPDEST SWAP2 POP PUSH2 0x350 DUP4 PUSH2 0x1A7 JUMP JUMPDEST SWAP3 POP DUP3 DUP3 ADD SWAP1 POP DUP1 DUP3 GT ISZERO PUSH2 0x368 JUMPI PUSH2 0x367 PUSH2 0x2D7 JUMP JUMPDEST JUMPDEST SWAP3 SWAP2 POP POP JUMP INVALID LOG2 PUSH5 0x6970667358 0x22 SLT KECCAK256 SWAP8 0xF8 0x5F 0xB7 SWAP16 0xE8 LOG4 0x4D SGT 0xF9 PUSH15 0x94081922A05D14390E5C25B893FE34 CALL 0xD8 0xC5 GT 0xD2 DUP16 PUSH5 0x736F6C6343 STOP ADDMOD GT STOP CALLER "},"methodIdentifiers":{"decrement(uint256)":"3a9ebefd","increment(uint256)":"7cf5dab0","reset()":"d826f88f","setValue(uint256)":"55241077","value()":"3fa4f245"}}}}}